:040000004DEF00F0D0
:100008004E82FACF01F0FBCF02F0E9CF03F0EACF3E
:1000180004F0E1CF05F0E2CF06F0D9CF07F0DACF50
:1000280008F0F3CF09F0F4CF0AF0F6CF0BF0F7CFD2
:100038000CF0F8CF0DF0F5CF0EF0F2BC9DA805D06E
:100048009EA803D0FBEC01F006D0F2BC9DAA03D019
:100058009EBA12EC02F00EC0F5FF0DC0F8FF0CC0FE
:10006800F7FF0BC0F6FF0AC0F4FF09C0F3FF08C092
:10007800DAFF07C0D9FF06C0E2FF05C0E1FF04C0F0
:10008800EAFF03C0E9FF02C0FBFF01C0FAFF4E927E
:10009800110028EF02F033EC02F00F013F9F0F012F
:1000A8003F850F013F830F013F810FC0D9FF10C06B
:1000B800DAFFDF50986E20EE07F00F50D926105067
:1000C800DA22DF50996E20EE02F00F50D926105038
:1000D800DA22DF50986E20EE01F00F50D92610502A
:1000E800DA22DF50996E20EE04F00F50D926105016
:1000F800DA22DF50986E20EE03F00F50D926105008
:10010800DA22DF50996E20EE06F00F50D9261050F3
:10011800DA22DF50986E20EE05F00F50D9261050E5
:10012800DA22DF50996E0F013F8F0F013F9B1200BB
:100138000F013FB9FDD733EC02F00F013F830F01E8
:100148003F810FC0D9FF10C0DAFF98CFDFFF20EE44
:1001580007F00F50D9261050DA2299CFDFFF20EE92
:1001680002F00F50D9261050DA2298CFDFFF20EE88
:1001780001F00F50D9261050DA2299CFDFFF20EE78
:1001880004F00F50D9261050DA2298CFDFFF20EE66
:1001980003F00F50D9261050DA2299CFDFFF20EE56
:1001A80006F00F50D9261050DA2298CFDFFF20EE44
:1001B80005F00F50D9261050DA2299CFDFFF0F0132
:1001C8003F9B12001C50C8EC01F01AC0D9FF1BC09D
:1001D800DAFFDF6E20EE01F01A50D9261B50DA2222
:1001E8001D50C8EC01F0DF6E20EE02F01A50D9263F
:1001F8001B50DA221E50C8EC01F0DF6E20EE03F02F
:100208001A50D9261B50DA221F50C8EC01F0DF6EB5
:1002180020EE04F01A50D9261B50DA222050C8ECE0
:1002280001F0DF6E20EE05F01A50D9261B50DA22B5
:100238002150C8EC01F0DF6E20EE06F01A50D926E6
:100248001B50DA222250C8EC01F0DF6E1200000EBB
:10025800146E12AE06D0116C121ED8B0122A010EFE
:10026800146E10AE06D00F6C101ED8B0102A010EF6
:10027800141A000E166E000E156E11501210D8B416
:100288001CD0010E136E04D0D89011361236132AE2
:1002980012AEFAD7D8901536163611500F5C125098
:1002A8001058D8A005D011500F5E1250105A158062
:1002B800D89012321132132EEDD71450D8B404D07E
:1002C800156C161ED8B0162A15C00FF016C010F0FF
:1002D8001200000E146E10AE06D00F6C101ED8B0AF
:1002E800102A010E146E12AE04D0116C121ED8B072
:1002F800122A11501210D8B418D0010E136E04D05F
:10030800D89011361236132A12AEFAD711500F5C54
:1003180012501058D8A004D011500F5E1250105A25
:10032800D89012321132132EF1D71450D8B404D009
:100338000F6C101ED8B0102A0FC00FF010C010F0AC
:1003480012003AEC02F0600E1A6E000E1B6E630E7D
:100358001C6E0C0E1D6E1F0E1E6E020E1F6E170EEB
:10036800206E3B0E216E380E226EE6EC00F0600E19
:100378000F6E000E106E4FEC00F0600E0F6E000E48
:10038800106E9CEC00F0F9D7196E19C00FF0106AC6
:10039800000E126E0A0E116E6DEC01F00FC017F010
:1003A80010C018F019C00FF0106A000E126E0A0E75
:1003B800116E2BEC01F00F38F00B17101200000E25
:1003C8008D6E000E8C6E000E896E000E8A6E000E09
:1003D8008B6E070E966EAF0E926E9368BF0E946E7C
:1003E80095680F0148697F0E0F01496F1200100EC2
:1003F8004B6012D04C50010D380EF324D96E000E0C
:10040800F420DA6EDF50AE6E4C2A0F0E4C6402D028
:10041800000E4C6E4B2A12009D981200ACA202D01E
:10042800AC98AC884A50010D280EF324D96E000E02
:10043800F420DA6EAFCFDFFF4A2A0F0E4A6402D0EB
:10044800000E4A6E482A120000EE28F0260EEE6AC8
:10045800E806FDE14E904E920001A5EF01F00F0174
:10046800550EA76EAA0EA76E3F8B120041EC02F044
:1004780047EC02F0E3EC01F01200000ED36E040E1C
:0A0488000F013C6F1200D09E12001D
:08FFF80080F4DDFFF1F9FFF1D7
:00000001FF
